:100000000C945D000C9485000C9485000C94850084
:100010000C9485000C9485000C9485000C9485004C
:100020000C9485000C9485000C9485000C9485003C
:100030000C9485000C9485000C9485000C9485002C
:100040000C9445020C9485000C94B5020C948F021C
:100050000C9485000C9485000C9485000C9485000C
:100060000C9485000C94850000000008000201003B
:100070000003040700000000000000000000000072
:10008000250028002B0000000000240027002A0083
:10009000040404040404040402020202020203032E
:1000A0000303030301020408102040800102040836
:1000B00010200102040810208D0411241FBECFEF70
:1000C000D8E0DEBFCDBF22E0AAECB1E001C01D92B6
:1000D000A237B207E1F711E0A0E0B1E0ECEFF9E000
:1000E00002C005900D92AA3CB107D9F710E0CDE50A
:1000F000D0E004C02197FE010E94F604CC35D10760
:10010000C9F70E94E7020C94FC040C940000EDEA8D
:10011000F0E02491E9E9F0E08491882399F090E0FF
:10012000880F991FFC01EA57FF4FA591B491FC017C
:10013000E458FF4F859194918FB7F894EC91E22B9E
:10014000EC938FBF0895E1E7F0E02491EDEAF0E051
:100150009491E9E9F0E0E491EE23C9F0222339F02B
:10016000233001F1A8F4213019F1223029F1F0E017
:10017000EE0FFF1FE458FF4FA591B4912FB7F894ED
:10018000EC91811126C090959E239C932FBF0895DA
:100190002730A9F02830C9F0243049F72091800099
:1001A0002F7D03C0209180002F7720938000DFCF28
:1001B00024B52F7724BDDBCF24B52F7DFBCF209135
:1001C000B0002F772093B000D2CF2091B0002F7DC8
:1001D000F9CF9E2BDACFAF92BF92CF92DF92EF9200
:1001E000FF920F931F93CF93DF936C017B018B01E1
:1001F000040F151FEB015E01AE18BF08C017D10731
:1002000059F06991D601ED91FC910190F081E02DBA
:10021000C6010995892B79F7C501DF91CF911F910F
:100220000F91FF90EF90DF90CF90BF90AF90089527
:10023000FC01538D448D252F30E0842F90E0821BEC
:10024000930B541710F0CF96089501970895FC0171
:10025000918D828D981761F0A28DAE0FBF2FB11DC9
:100260005D968C91928D9F5F9F73928F90E0089521
:100270008FEF9FEF0895FC01918D828D981731F0DB
:10028000828DE80FF11D858D90E008958FEF9FEF2F
:1002900008952FB7F8948091D1019091D201A09147
:1002A000D301B091D4012FBF8093DD019093DE0183
:1002B000A093DF01B093E00185ED91E00E943B0146
:1002C00097FF26C02FB7F8948091D1019091D20169
:1002D000A091D301B091D4012FBF4091DD01509185
:1002E000DE016091DF017091E001841B950BA60B8C
:1002F000B70B4091D9015091DA016091DB01709107
:10030000DC0184179507A607B707B0F28FEF9FEFC0
:100310000895FC01918D228D892F90E0805C9F4F84
:10032000821B91098F739927089585ED91E00E94B2
:10033000890121E0892B09F420E0822F089580E0D3
:1003400090E0892B29F00E94950181110C94000006
:100350000895FC01A48DA80FB92FB11DA35ABF4F5A
:100360002C91848D90E001968F739927848FA689B4
:10037000B7892C93A089B1898C91837080648C9308
:10038000938D848D981306C00288F389E02D8081B7
:100390008F7D80830895EF92FF920F931F93CF93E9
:1003A000DF93EC0181E0888F9B8D8C8D98131AC0B0
:1003B000E889F989808185FF15C09FB7F894EE8997
:1003C000FF896083E889F9898081837080648083F4
:1003D0009FBF81E090E0DF91CF911F910F91FF903F
:1003E000EF900895F62E0B8D10E00F5F1F4F0F73E7
:1003F0001127E02E8C8D8E110CC00FB607FCFACFA2
:10040000E889F989808185FFF5CFCE010E94A90195
:10041000F1CFEB8DEC0FFD2FF11DE35AFF4FF08272
:100420009FB7F8940B8FEA89FB8980818062CFCFD8
:10043000CF93DF93EC01888D8823B9F0AA89BB891B
:10044000E889F9898C9185FD03C0808186FD0DC006
:100450000FB607FCF7CF8C9185FFF2CF808185FF27
:10046000EDCFCE010E94A901E9CFDF91CF91089590
:10047000FC0101900020E9F73197AF01481B590BAF
:10048000BC0185ED91E00C94EB001F920F920FB62A
:100490000F9211242F933F938F939F93AF93BF930A
:1004A0008091D1019091D201A091D301B091D4015A
:1004B0003091D00123E0230F2D3758F50196A11D6F
:1004C000B11D2093D0018093D1019093D201A093CC
:1004D000D301B093D4018091CC019091CD01A09132
:1004E000CE01B091CF010196A11DB11D8093CC0129
:1004F0009093CD01A093CE01B093CF01BF91AF9166
:100500009F918F913F912F910F900FBE0F901F9051
:10051000189526E8230F0296A11DB11DD2CF1F9278
:100520000F920FB60F9211242F933F934F935F9327
:100530006F937F938F939F93AF93BF93EF93FF93AB
:1005400085ED91E00E94A901FF91EF91BF91AF91DC
:100550009F918F917F916F915F914F913F912F91DB
:100560000F900FBE0F901F9018951F920F920FB60D
:100570000F9211242F938F939F93EF93FF93E0910A
:10058000E501F091E6018081E091EB01F091EC0151
:1005900082FD1BC090818091EE018F5F8F7320914F
:1005A000EF01821741F0E091EE01F0E0EB52FE4FD7
:1005B000958F8093EE01FF91EF919F918F912F91F5
:1005C0000F900FBE0F901F9018958081F4CFCF939E
:1005D000DF93CDB7DEB7A1970FB6F894DEBF0FBE9D
:1005E000CDBF789484B5826084BD84B5816084BDBC
:1005F00085B5826085BD85B5816085BD80916E00C1
:10060000816080936E0010928100809181008260F1
:10061000809381008091810081608093810080912E
:1006200080008160809380008091B100846080931D
:10063000B1008091B00081608093B00080917A0019
:10064000846080937A0080917A00826080937A003F
:1006500080917A00816080937A0080917A0080682E
:1006600080937A001092C1000E948700E091E5011A
:10067000F091E60182E08083E091E101F091E201F6
:100680001082E091E301F091E4018FEC80831092FD
:10069000ED01E091E901F091EA0186E08083E091CB
:1006A000E701F091E801808180618083E091E701BA
:1006B000F091E801808188608083E091E701F0910A
:1006C000E801808180688083E091E701F091E80192
:1006D00080818F7D808382E191E00E94380281E6F3
:1006E00091E00E9438028AE0482E512C612C712C36
:1006F00091E7892E90E0992E20E0A22E20E0B22EE4
:1007000085ED91E00E948901181619060CF08FC042
:100710000E944901FC0197FD9DC08D32910521F099
:10072000C0970A9708F08FC0C12CD12C760110E039
:10073000E130F105D9F0ED32F10509F489C0CF01BE
:10074000C0970A9798F4AAE0B0E0A70196010E942A
:10075000BA046F01FF0FEE08FF08C60ED71EE81E91
:10076000F91E80E3C81AD108E108F10885ED91E08F
:100770000E9427010E944901FC01C0970A97C0F21C
:10078000E130F105A9F2112341F0F094E094D09406
:10079000C094C11CD11CE11CF11C8601D092CB017C
:1007A000C092CA0181E991E00F3F110511F008F0F4
:1007B000B1C00E948700C114D10409F04FC080E08D
:1007C0000E94A30084E691E00E943802C090CA0112
:1007D000D090CB010D2C000CEE08FF08F7FE84C072
:1007E0006DE285ED91E00E94CB0122273327A9011C
:1007F0002C193D094E095F0919A28E010F5D1F4F8B
:10080000CA01B901A30192010E94D404605DF801FC
:1008100062938F01211531054105510589F7C80102
:10082000012B09F077C081E691E00E943802A11403
:10083000B10409F465CF0E949501882309F460CFC3
:100840000E9400005DCF85ED91E00E94270160CFFE
:1008500011E08CCFC12CD12C76019FCF0F3F110519
:1008600011F481E0ADCFF4018491833019F140F4AB
:100870008130B1F08230C9F00038110594F79FCF74
:10088000873011F1883041F18430B1F780918000D8
:10089000806280938000D0928B00C0928A0092CFB9
:1008A00084B5806884BDC7BC8DCF84B5806284BDAB
:1008B000C8BC88CF80918000806880938000D092EF
:1008C0008900C09288007ECF8091B00080688093BC
:1008D000B000C092B30076CF8091B0008062809368
:1008E000B000C092B4006ECFA701960119A28E018C
:1008F0000F5D1F4FCA01B901A30192010E94D404E8
:10090000605DF80162938F012115310541055105A4
:1009100089F785CF0E94380286CFE5EDF1E013829A
:10092000128288EE93E0A0E0B0E084839583A683F2
:10093000B78384E091E09183808385EC90E0958794
:10094000848784EC90E09787868780EC90E0918B99
:10095000808B81EC90E0938B828B82EC90E0958B86
:10096000848B86EC90E0978B868B118E128E138E83
:10097000148E08950E94C504A59F900DB49F900DFC
:10098000A49F800D911D11240895A29FB001B39FD3
:10099000C001A39F700D811D1124911DB29F700D88
:1009A000811D1124911D0895A1E21A2EAA1BBB1BC3
:1009B000FD010DC0AA1FBB1FEE1FFF1FA217B3072B
:1009C000E407F50720F0A21BB30BE40BF50B661F41
:1009D000771F881F991F1A9469F760957095809505
:1009E00090959B01AC01BD01CF010895EE0FFF1F53
:0C09F0000590F491E02D0994F894FFCFDD
:1009FC0000000000CB01EB0018011802890127014F
:100A0C003B0141726475696E6F20D0B3D0BED18248
:100A1C00D0BED0B220D0BA20D180D0B0D0B1D0BE10
:100A2C00D182D0B52E20D092D0B2D0B5D0B4D0B81F
:100A3C00D182D0B520D187D0B8D181D0BBD0BE2047
:100A4C00D0BED182203020D0B4D0BE203235353A41
:100A5C00000D0A00D0AFD180D0BAD0BED181D182E6
:100A6C00D18C20D183D181D182D0B0D0BDD0BED099
:100A7C00B2D0BBD0B5D0BDD0B020D0BDD0B03A2014
:100A8C0000D09ED188D0B8D0B1D0BAD0B03A20D056
:100A9C00B2D0B2D0B5D0B4D0B8D182D0B520D18735
:100AAC00D0B8D181D0BBD0BE20D0BED182203020D6
:0A0ABC00D0B4D0BE203235352E0034
:00000001FF
